{
  "_format": "hh-sol-artifact-1",
  "contractName": "ReentrantERC20",
  "sourceName": "contracts/ReentrantERC20.sol",
  "abi": [
    {
      "inputs": [],
      "stateMutability": "nonpayable",
      "type": "constructor"
    },
    {
      "inputs": [
        {
          "internalType": "address",
          "name": "spender",
          "type": "address"
        },
        {
          "internalType": "uint256",
          "name": "allowance",
          "type": "uint256"
        },
        {
          "internalType": "uint256",
          "name": "needed",
          "type": "uint256"
        }
      ],
      "name": "ERC20InsufficientAllowance",
      "type": "error"
    },
    {
      "inputs": [
        {
          "internalType": "address",
          "name": "sender",
          "type": "address"
        },
        {
          "internalType": "uint256",
          "name": "balance",
          "type": "uint256"
        },
        {
          "internalType": "uint256",
          "name": "needed",
          "type": "uint256"
        }
      ],
      "name": "ERC20InsufficientBalance",
      "type": "error"
    },
    {
      "inputs": [
        {
          "internalType": "address",
          "name": "approver",
          "type": "address"
        }
      ],
      "name": "ERC20InvalidApprover",
      "type": "error"
    },
    {
      "inputs": [
        {
          "internalType": "address",
          "name": "receiver",
          "type": "address"
        }
      ],
      "name": "ERC20InvalidReceiver",
      "type": "error"
    },
    {
      "inputs": [
        {
          "internalType": "address",
          "name": "sender",
          "type": "address"
        }
      ],
      "name": "ERC20InvalidSender",
      "type": "error"
    },
    {
      "inputs": [
        {
          "internalType": "address",
          "name": "spender",
          "type": "address"
        }
      ],
      "name": "ERC20InvalidSpender",
      "type": "error"
    },
    {
      "anonymous": false,
      "inputs": [
        {
          "indexed": true,
          "internalType": "address",
          "name": "owner",
          "type": "address"
        },
        {
          "indexed": true,
          "internalType": "address",
          "name": "spender",
          "type": "address"
        },
        {
          "indexed": false,
          "internalType": "uint256",
          "name": "value",
          "type": "uint256"
        }
      ],
      "name": "Approval",
      "type": "event"
    },
    {
      "anonymous": false,
      "inputs": [
        {
          "indexed": true,
          "internalType": "address",
          "name": "from",
          "type": "address"
        },
        {
          "indexed": true,
          "internalType": "address",
          "name": "to",
          "type": "address"
        },
        {
          "indexed": false,
          "internalType": "uint256",
          "name": "value",
          "type": "uint256"
        }
      ],
      "name": "Transfer",
      "type": "event"
    },
    {
      "inputs": [
        {
          "internalType": "address",
          "name": "owner",
          "type": "address"
        },
        {
          "internalType": "address",
          "name": "spender",
          "type": "address"
        }
      ],
      "name": "allowance",
      "outputs": [
        {
          "internalType": "uint256",
          "name": "",
          "type": "uint256"
        }
      ],
      "stateMutability": "view",
      "type": "function"
    },
    {
      "inputs": [
        {
          "internalType": "address",
          "name": "spender",
          "type": "address"
        },
        {
          "internalType": "uint256",
          "name": "value",
          "type": "uint256"
        }
      ],
      "name": "approve",
      "outputs": [
        {
          "internalType": "bool",
          "name": "",
          "type": "bool"
        }
      ],
      "stateMutability": "nonpayable",
      "type": "function"
    },
    {
      "inputs": [
        {
          "internalType": "address",
          "name": "vaultAddress",
          "type": "address"
        },
        {
          "internalType": "uint256",
          "name": "reentryAmount",
          "type": "uint256"
        }
      ],
      "name": "armDepositAttack",
      "outputs": [],
      "stateMutability": "nonpayable",
      "type": "function"
    },
    {
      "inputs": [],
      "name": "attackAmount",
      "outputs": [
        {
          "internalType": "uint256",
          "name": "",
          "type": "uint256"
        }
      ],
      "stateMutability": "view",
      "type": "function"
    },
    {
      "inputs": [],
      "name": "attackType",
      "outputs": [
        {
          "internalType": "enum ReentrantERC20.AttackType",
          "name": "",
          "type": "uint8"
        }
      ],
      "stateMutability": "view",
      "type": "function"
    },
    {
      "inputs": [
        {
          "internalType": "uint256",
          "name": "amount",
          "type": "uint256"
        }
      ],
      "name": "attackWithdraw",
      "outputs": [],
      "stateMutability": "nonpayable",
      "type": "function"
    },
    {
      "inputs": [
        {
          "internalType": "address",
          "name": "account",
          "type": "address"
        }
      ],
      "name": "balanceOf",
      "outputs": [
        {
          "internalType": "uint256",
          "name": "",
          "type": "uint256"
        }
      ],
      "stateMutability": "view",
      "type": "function"
    },
    {
      "inputs": [],
      "name": "decimals",
      "outputs": [
        {
          "internalType": "uint8",
          "name": "",
          "type": "uint8"
        }
      ],
      "stateMutability": "view",
      "type": "function"
    },
    {
      "inputs": [
        {
          "internalType": "address",
          "name": "to",
          "type": "address"
        },
        {
          "internalType": "uint256",
          "name": "amount",
          "type": "uint256"
        }
      ],
      "name": "mint",
      "outputs": [],
      "stateMutability": "nonpayable",
      "type": "function"
    },
    {
      "inputs": [],
      "name": "name",
      "outputs": [
        {
          "internalType": "string",
          "name": "",
          "type": "string"
        }
      ],
      "stateMutability": "view",
      "type": "function"
    },
    {
      "inputs": [
        {
          "internalType": "address",
          "name": "vaultAddress",
          "type": "address"
        },
        {
          "internalType": "uint256",
          "name": "seedAmount",
          "type": "uint256"
        },
        {
          "internalType": "uint256",
          "name": "reentryAmount",
          "type": "uint256"
        }
      ],
      "name": "seedAndArmWithdrawAttack",
      "outputs": [],
      "stateMutability": "nonpayable",
      "type": "function"
    },
    {
      "inputs": [],
      "name": "symbol",
      "outputs": [
        {
          "internalType": "string",
          "name": "",
          "type": "string"
        }
      ],
      "stateMutability": "view",
      "type": "function"
    },
    {
      "inputs": [],
      "name": "totalSupply",
      "outputs": [
        {
          "internalType": "uint256",
          "name": "",
          "type": "uint256"
        }
      ],
      "stateMutability": "view",
      "type": "function"
    },
    {
      "inputs": [
        {
          "internalType": "address",
          "name": "to",
          "type": "address"
        },
        {
          "internalType": "uint256",
          "name": "value",
          "type": "uint256"
        }
      ],
      "name": "transfer",
      "outputs": [
        {
          "internalType": "bool",
          "name": "",
          "type": "bool"
        }
      ],
      "stateMutability": "nonpayable",
      "type": "function"
    },
    {
      "inputs": [
        {
          "internalType": "address",
          "name": "from",
          "type": "address"
        },
        {
          "internalType": "address",
          "name": "to",
          "type": "address"
        },
        {
          "internalType": "uint256",
          "name": "value",
          "type": "uint256"
        }
      ],
      "name": "transferFrom",
      "outputs": [
        {
          "internalType": "bool",
          "name": "",
          "type": "bool"
        }
      ],
      "stateMutability": "nonpayable",
      "type": "function"
    },
    {
      "inputs": [],
      "name": "vault",
      "outputs": [
        {
          "internalType": "address",
          "name": "",
          "type": "address"
        }
      ],
      "stateMutability": "view",
      "type": "function"
    }
  ],
  "bytecode": "0x60803462000314576040906001600160401b03908083018281118282101762000214578352600f81526020916e2932b2b73a3930b73a102a37b5b2b760891b83830152835184810181811083821117620002145785526003908181526214939560ea1b8582015283519083821162000214578254916001958684811c9416801562000309575b88851014620002f3578190601f948581116200029d575b50889085831160011462000236576000926200022a575b505060001982861b1c191690861b1783555b8051938411620002145760049586548681811c9116801562000209575b82821014620001f457838111620001a9575b50809285116001146200013b57509383949184926000956200012f575b50501b92600019911b1c19161790555b51610be090816200031a8239f35b01519350388062000111565b92919084601f1981168860005285600020956000905b898383106200018e575050501062000173575b50505050811b01905562000121565b01519060f884600019921b161c191690553880808062000164565b85870151895590970196948501948893509081019062000151565b87600052816000208480880160051c820192848910620001ea575b0160051c019087905b828110620001dd575050620000f4565b60008155018790620001cd565b92508192620001c4565b602288634e487b7160e01b6000525260246000fd5b90607f1690620000e2565b634e487b7160e01b600052604160045260246000fd5b015190503880620000b3565b90889350601f19831691876000528a6000209260005b8c8282106200028657505084116200026d575b505050811b018355620000c5565b015160001983881b60f8161c191690553880806200025f565b8385015186558c979095019493840193016200024c565b90915085600052886000208580850160051c8201928b8610620002e9575b918a91869594930160051c01915b828110620002d95750506200009c565b600081558594508a9101620002c9565b92508192620002bb565b634e487b7160e01b600052602260045260246000fd5b93607f169362000085565b600080fdfe6040608081526004908136101561001557600080fd5b600091823560e01c9081630165644d1461077457816306fdde031461067f578163095ea7b3146105d557816318160ddd146105b657816323b872dd146104c2578163313ce567146104a657816337981a22146103cd57816340c10f19146103a557816370a082311461036e578382637d647817146102e75750816388193565146102c857816395d89b41146101c5578163a9059cbb1461018c578163ad0b523f1461014d57508063dd62ed3e146101005763fbfa77cf146100d557600080fd5b346100fc57816003193601126100fc5760055490516001600160a01b039091168152602090f35b5080fd5b50346100fc57806003193601126100fc5760209161011c6107cb565b826101256107e6565b6001600160a01b03928316845260018652922091166000908152908352819020549051908152f35b8383346100fc57816003193601126100fc5760ff60075416905191600382101561017957602083838152f35b634e487b7160e01b815260218452602490fd5b5050346100fc57806003193601126100fc576020906101b66101ac6107cb565b60243590336109b8565b6101be610a7d565b5160018152f35b8383346100fc57816003193601126100fc57805191809380549160019083821c928285169485156102be575b60209586861081146102ab57858952908115610287575060011461022f575b61022b8787610221828c038361086f565b51918291826107fc565b0390f35b81529295507f8a35acfbc15ff81a39ae7d344fd709f28e8600b4aa8c65c6b64bfe7fe36bd19b5b828410610274575050508261022b9461022192820101948680610210565b8054868501880152928601928101610256565b60ff19168887015250505050151560051b83010192506102218261022b8680610210565b634e487b7160e01b845260228352602484fd5b93607f16936101f1565b5050346100fc57816003193601126100fc576020906006549051908152f35b8091843461036a57602036600319011261036a576005546001600160a01b0316803b1561036557815163f3fef3a360e01b81523081850190815293356020850152928491849182908490829060400103925af190811561035c57506103495750f35b61035290610845565b6103595780f35b80fd5b513d84823e3d90fd5b505050fd5b5050fd5b5050346100fc5760203660031901126100fc5760209181906001600160a01b036103966107cb565b16815280845220549051908152f35b5050346100fc57366003190112610359576103ca6103c16107cb565b60243590610928565b80f35b9050346104a25760603660031901126104a2576103e86107cb565b918360243560018060a01b038516806bffffffffffffffffffffffff60a01b600554161760055560443560065561043561ffff1996876007541660075561042f8430610928565b30610891565b803b156104a25783516311f9fbc960e21b8152309581019586526020860192909252909384919082908490829060400103925af19081156104995750610485575b50600290600754161760075580f35b9161049260029293610845565b9190610476565b513d85823e3d90fd5b8280fd5b5050346100fc57816003193601126100fc576020905160128152f35b90508234610359576060366003190112610359576104de6107cb565b6104e66107e6565b916044359360018060a01b038316808352600160205286832033845260205286832054916000198310610522575b6020886101b68989896109b8565b86831061058a57811561057357331561055c575082526001602090815286832033845281529186902090859003905582906101b687610514565b8751634a1406b160e11b8152908101849052602490fd5b875163e602df0560e01b8152908101849052602490fd5b8751637dc7a0d960e11b8152339181019182526020820193909352604081018790528291506060010390fd5b5050346100fc57816003193601126100fc576020906002549051908152f35b9050346104a257816003193601126104a2576105ef6107cb565b602435903315610668576001600160a01b031691821561065157508083602095338152600187528181208582528752205582519081527f8c5be1e5ebec7d5bd14f71427d1e84f3dd0314c0f7b2291e5b200ac8c7c3b925843392a35160018152f35b8351634a1406b160e11b8152908101859052602490fd5b835163e602df0560e01b8152808401869052602490fd5b919050346104a257826003193601126104a257805191836003549060019082821c92828116801561076a575b6020958686108214610757575084885290811561073557506001146106dc575b61022b8686610221828b038361086f565b929550600383527fc2575a0e9e593c00f959f8c92f12db2869c3395a3b0502d05e2516446f71f85b5b828410610722575050508261022b946102219282010194386106cb565b8054868501880152928601928101610705565b60ff191687860152505050151560051b83010192506102218261022b386106cb565b634e487b7160e01b845260229052602483fd5b93607f16936106ab565b5050346100fc57366003190112610359576103ca6107906107cb565b600580546001600160a01b0319166001600160a01b03831617905560243560068190556007805461ffff1916600117905561042f9030610928565b600435906001600160a01b03821682036107e157565b600080fd5b602435906001600160a01b03821682036107e157565b6020808252825181830181905290939260005b82811061083157505060409293506000838284010152601f8019910116010190565b81810186015184820160400152850161080f565b67ffffffffffffffff811161085957604052565b634e487b7160e01b600052604160045260246000fd5b90601f8019910116810190811067ffffffffffffffff82111761085957604052565b6001600160a01b0390811691821561090f57169081156108f6578060005260016020526040600020826000526020527f8c5be1e5ebec7d5bd14f71427d1e84f3dd0314c0f7b2291e5b200ac8c7c3b925602060001980604060002055604051908152a3565b604051634a1406b160e11b815260006004820152602490fd5b60405163e602df0560e01b815260006004820152602490fd5b6001600160a01b031690811561099f57600254908082018092116109895760207fddf252ad1be2c89b69c2b068fc378daa952ba7f163c4a11628f55a4df523b3ef9160009360025584845283825260408420818154019055604051908152a3565b634e487b7160e01b600052601160045260246000fd5b60405163ec442f0560e01b815260006004820152602490fd5b916001600160a01b03808416928315610a64571692831561099f5760009083825281602052604082205490838210610a32575091604082827fddf252ad1be2c89b69c2b068fc378daa952ba7f163c4a11628f55a4df523b3ef958760209652828652038282205586815220818154019055604051908152a3565b60405163391434e360e21b81526001600160a01b03919091166004820152602481019190915260448101839052606490fd5b604051634b637e8f60e11b815260006004820152602490fd5b6005546001600160a01b0390811680158015610b9b575b8015610b91575b610b8d5760ff60075461010061ff0019821617600755166003811015610b775760018103610b225750506005541660065490803b156107e1576040516311f9fbc960e21b815230600482015260248101929092526000908290604490829084905af18015610b1657610b0b575b50565b610b1490610845565b565b6040513d6000823e3d90fd5b600291925014610b2f5750565b60065490803b156107e15760405163f3fef3a360e01b815230600482015260248101929092526000908290604490829084905af18015610b165715610b0857610b1490610845565b634e487b7160e01b600052602160045260246000fd5b5050565b5080331415610a9b565b5060ff60075460081c16610a9456fea26469706673582212200db86b4e3baeea40e850297ffd57c23ca74339a1a2a5fcb61f67ea8114889e5b64736f6c63430008140033",
  "linkReferences": {},
  "deployedLinkReferences": {}
}