{
  "_format": "hh-sol-artifact-1",
  "contractName": "AegisVault",
  "sourceName": "contracts/AegisVault.sol",
  "abi": [
    {
      "inputs": [
        {
          "internalType": "address",
          "name": "initialOwner",
          "type": "address"
        },
        {
          "internalType": "address",
          "name": "initialAiOracle",
          "type": "address"
        }
      ],
      "stateMutability": "nonpayable",
      "type": "constructor"
    },
    {
      "inputs": [],
      "name": "AmountMustBeGreaterThanZero",
      "type": "error"
    },
    {
      "inputs": [
        {
          "internalType": "uint256",
          "name": "deadline",
          "type": "uint256"
        },
        {
          "internalType": "uint256",
          "name": "currentTime",
          "type": "uint256"
        }
      ],
      "name": "DeadlinePassed",
      "type": "error"
    },
    {
      "inputs": [
        {
          "internalType": "address",
          "name": "account",
          "type": "address"
        },
        {
          "internalType": "address",
          "name": "token",
          "type": "address"
        },
        {
          "internalType": "uint256",
          "name": "available",
          "type": "uint256"
        },
        {
          "internalType": "uint256",
          "name": "requested",
          "type": "uint256"
        }
      ],
      "name": "InsufficientDepositBalance",
      "type": "error"
    },
    {
      "inputs": [
        {
          "internalType": "address",
          "name": "token",
          "type": "address"
        },
        {
          "internalType": "uint256",
          "name": "available",
          "type": "uint256"
        },
        {
          "internalType": "uint256",
          "name": "requested",
          "type": "uint256"
        }
      ],
      "name": "InsufficientRoutedBalance",
      "type": "error"
    },
    {
      "inputs": [],
      "name": "InvalidAIOracleAddress",
      "type": "error"
    },
    {
      "inputs": [],
      "name": "InvalidOracleAddress",
      "type": "error"
    },
    {
      "inputs": [
        {
          "internalType": "uint256",
          "name": "weight",
          "type": "uint256"
        }
      ],
      "name": "InvalidTargetWeight",
      "type": "error"
    },
    {
      "inputs": [],
      "name": "InvalidTokenAddress",
      "type": "error"
    },
    {
      "inputs": [],
      "name": "InvalidXCMPrecompileAddress",
      "type": "error"
    },
    {
      "inputs": [
        {
          "internalType": "address",
          "name": "caller",
          "type": "address"
        }
      ],
      "name": "OnlyAIOracle",
      "type": "error"
    },
    {
      "inputs": [
        {
          "internalType": "address",
          "name": "owner",
          "type": "address"
        }
      ],
      "name": "OwnableInvalidOwner",
      "type": "error"
    },
    {
      "inputs": [
        {
          "internalType": "address",
          "name": "account",
          "type": "address"
        }
      ],
      "name": "OwnableUnauthorizedAccount",
      "type": "error"
    },
    {
      "inputs": [
        {
          "internalType": "uint256",
          "name": "deviation",
          "type": "uint256"
        },
        {
          "internalType": "uint256",
          "name": "threshold",
          "type": "uint256"
        }
      ],
      "name": "RebalanceThresholdNotMet",
      "type": "error"
    },
    {
      "inputs": [],
      "name": "RebalancingInProgress",
      "type": "error"
    },
    {
      "inputs": [],
      "name": "ReentrancyGuardReentrantCall",
      "type": "error"
    },
    {
      "inputs": [
        {
          "internalType": "uint256",
          "name": "riskScore",
          "type": "uint256"
        }
      ],
      "name": "RiskScoreTooHigh",
      "type": "error"
    },
    {
      "inputs": [
        {
          "internalType": "address",
          "name": "token",
          "type": "address"
        },
        {
          "internalType": "uint256",
          "name": "requested",
          "type": "uint256"
        },
        {
          "internalType": "uint256",
          "name": "cap",
          "type": "uint256"
        }
      ],
      "name": "RouteCapExceeded",
      "type": "error"
    },
    {
      "inputs": [
        {
          "internalType": "address",
          "name": "token",
          "type": "address"
        }
      ],
      "name": "SafeERC20FailedOperation",
      "type": "error"
    },
    {
      "inputs": [
        {
          "internalType": "uint256",
          "name": "actualSlippage",
          "type": "uint256"
        },
        {
          "internalType": "uint256",
          "name": "maxSlippage",
          "type": "uint256"
        }
      ],
      "name": "SlippageExceeded",
      "type": "error"
    },
    {
      "inputs": [
        {
          "internalType": "address",
          "name": "token",
          "type": "address"
        }
      ],
      "name": "TokenNotSupported",
      "type": "error"
    },
    {
      "inputs": [],
      "name": "XCMRoutingPaused",
      "type": "error"
    },
    {
      "anonymous": false,
      "inputs": [
        {
          "indexed": true,
          "internalType": "address",
          "name": "newOracleAddress",
          "type": "address"
        }
      ],
      "name": "AIOracleUpdated",
      "type": "event"
    },
    {
      "anonymous": false,
      "inputs": [
        {
          "indexed": true,
          "internalType": "address",
          "name": "user",
          "type": "address"
        },
        {
          "indexed": true,
          "internalType": "address",
          "name": "token",
          "type": "address"
        },
        {
          "indexed": false,
          "internalType": "uint256",
          "name": "amount",
          "type": "uint256"
        },
        {
          "indexed": false,
          "internalType": "uint256",
          "name": "timestamp",
          "type": "uint256"
        }
      ],
      "name": "Deposit",
      "type": "event"
    },
    {
      "anonymous": false,
      "inputs": [
        {
          "indexed": true,
          "internalType": "address",
          "name": "previousOwner",
          "type": "address"
        },
        {
          "indexed": true,
          "internalType": "address",
          "name": "newOwner",
          "type": "address"
        }
      ],
      "name": "OwnershipTransferred",
      "type": "event"
    },
    {
      "anonymous": false,
      "inputs": [
        {
          "indexed": true,
          "internalType": "uint32",
          "name": "sourceParachainId",
          "type": "uint32"
        },
        {
          "indexed": true,
          "internalType": "uint32",
          "name": "destParachainId",
          "type": "uint32"
        },
        {
          "indexed": true,
          "internalType": "address",
          "name": "token",
          "type": "address"
        },
        {
          "indexed": false,
          "internalType": "uint256",
          "name": "amount",
          "type": "uint256"
        },
        {
          "indexed": false,
          "internalType": "uint256",
          "name": "actualSlippage",
          "type": "uint256"
        },
        {
          "indexed": false,
          "internalType": "uint256",
          "name": "timestamp",
          "type": "uint256"
        }
      ],
      "name": "RebalanceCompleted",
      "type": "event"
    },
    {
      "anonymous": false,
      "inputs": [
        {
          "indexed": true,
          "internalType": "uint32",
          "name": "sourceParachainId",
          "type": "uint32"
        },
        {
          "indexed": true,
          "internalType": "uint32",
          "name": "destParachainId",
          "type": "uint32"
        },
        {
          "indexed": true,
          "internalType": "address",
          "name": "token",
          "type": "address"
        },
        {
          "indexed": false,
          "internalType": "uint256",
          "name": "amount",
          "type": "uint256"
        },
        {
          "indexed": false,
          "internalType": "uint256",
          "name": "deviation",
          "type": "uint256"
        },
        {
          "indexed": false,
          "internalType": "uint256",
          "name": "timestamp",
          "type": "uint256"
        }
      ],
      "name": "RebalanceInitiated",
      "type": "event"
    },
    {
      "anonymous": false,
      "inputs": [
        {
          "indexed": false,
          "internalType": "bool",
          "name": "paused",
          "type": "bool"
        },
        {
          "indexed": true,
          "internalType": "address",
          "name": "toggledBy",
          "type": "address"
        }
      ],
      "name": "RebalancingToggled",
      "type": "event"
    },
    {
      "anonymous": false,
      "inputs": [
        {
          "indexed": true,
          "internalType": "address",
          "name": "token",
          "type": "address"
        },
        {
          "indexed": true,
          "internalType": "uint8",
          "name": "assetType",
          "type": "uint8"
        },
        {
          "indexed": false,
          "internalType": "uint256",
          "name": "newCap",
          "type": "uint256"
        }
      ],
      "name": "RouteCapByAssetTypeUpdated",
      "type": "event"
    },
    {
      "anonymous": false,
      "inputs": [
        {
          "indexed": true,
          "internalType": "address",
          "name": "token",
          "type": "address"
        },
        {
          "indexed": false,
          "internalType": "uint256",
          "name": "newCap",
          "type": "uint256"
        }
      ],
      "name": "RouteCapUpdated",
      "type": "event"
    },
    {
      "anonymous": false,
      "inputs": [
        {
          "indexed": true,
          "internalType": "bytes32",
          "name": "operationId",
          "type": "bytes32"
        },
        {
          "indexed": false,
          "internalType": "uint256",
          "name": "expectedAmount",
          "type": "uint256"
        },
        {
          "indexed": false,
          "internalType": "uint256",
          "name": "actualAmount",
          "type": "uint256"
        },
        {
          "indexed": false,
          "internalType": "uint256",
          "name": "slippageBps",
          "type": "uint256"
        }
      ],
      "name": "SlippageProtected",
      "type": "event"
    },
    {
      "anonymous": false,
      "inputs": [
        {
          "indexed": true,
          "internalType": "uint32",
          "name": "parachainId",
          "type": "uint32"
        },
        {
          "indexed": false,
          "internalType": "uint256",
          "name": "newWeight",
          "type": "uint256"
        },
        {
          "indexed": false,
          "internalType": "uint256",
          "name": "timestamp",
          "type": "uint256"
        }
      ],
      "name": "TargetWeightUpdated",
      "type": "event"
    },
    {
      "anonymous": false,
      "inputs": [
        {
          "indexed": true,
          "internalType": "address",
          "name": "token",
          "type": "address"
        }
      ],
      "name": "TokenSupported",
      "type": "event"
    },
    {
      "anonymous": false,
      "inputs": [
        {
          "indexed": true,
          "internalType": "address",
          "name": "user",
          "type": "address"
        },
        {
          "indexed": true,
          "internalType": "address",
          "name": "token",
          "type": "address"
        },
        {
          "indexed": false,
          "internalType": "uint256",
          "name": "amount",
          "type": "uint256"
        },
        {
          "indexed": false,
          "internalType": "uint256",
          "name": "timestamp",
          "type": "uint256"
        }
      ],
      "name": "Withdrawal",
      "type": "event"
    },
    {
      "anonymous": false,
      "inputs": [
        {
          "indexed": true,
          "internalType": "uint32",
          "name": "destParachainId",
          "type": "uint32"
        },
        {
          "indexed": false,
          "internalType": "bytes",
          "name": "assetData",
          "type": "bytes"
        },
        {
          "indexed": false,
          "internalType": "uint32",
          "name": "feeAssetItem",
          "type": "uint32"
        },
        {
          "indexed": false,
          "internalType": "uint64",
          "name": "weightLimit",
          "type": "uint64"
        }
      ],
      "name": "XCMCalled",
      "type": "event"
    },
    {
      "anonymous": false,
      "inputs": [
        {
          "indexed": true,
          "internalType": "address",
          "name": "newXCMPrecompile",
          "type": "address"
        }
      ],
      "name": "XCMPrecompileUpdated",
      "type": "event"
    },
    {
      "anonymous": false,
      "inputs": [
        {
          "indexed": false,
          "internalType": "bool",
          "name": "paused",
          "type": "bool"
        },
        {
          "indexed": true,
          "internalType": "address",
          "name": "toggledBy",
          "type": "address"
        }
      ],
      "name": "XCMRoutingToggled",
      "type": "event"
    },
    {
      "anonymous": false,
      "inputs": [
        {
          "indexed": true,
          "internalType": "uint32",
          "name": "targetChainId",
          "type": "uint32"
        },
        {
          "indexed": true,
          "internalType": "address",
          "name": "token",
          "type": "address"
        },
        {
          "indexed": false,
          "internalType": "uint256",
          "name": "amount",
          "type": "uint256"
        },
        {
          "indexed": true,
          "internalType": "uint256",
          "name": "parachainNonce",
          "type": "uint256"
        },
        {
          "indexed": false,
          "internalType": "bytes32",
          "name": "txHash",
          "type": "bytes32"
        },
        {
          "indexed": false,
          "internalType": "uint256",
          "name": "riskScore",
          "type": "uint256"
        },
        {
          "indexed": false,
          "internalType": "uint8",
          "name": "assetType",
          "type": "uint8"
        },
        {
          "indexed": false,
          "internalType": "uint256",
          "name": "timestamp",
          "type": "uint256"
        }
      ],
      "name": "XcmRouted",
      "type": "event"
    },
    {
      "anonymous": false,
      "inputs": [
        {
          "indexed": true,
          "internalType": "uint32",
          "name": "destParachainId",
          "type": "uint32"
        },
        {
          "indexed": true,
          "internalType": "address",
          "name": "token",
          "type": "address"
        },
        {
          "indexed": false,
          "internalType": "uint256",
          "name": "amount",
          "type": "uint256"
        },
        {
          "indexed": false,
          "internalType": "uint256",
          "name": "riskScore",
          "type": "uint256"
        },
        {
          "indexed": false,
          "internalType": "bytes",
          "name": "assetData",
          "type": "bytes"
        },
        {
          "indexed": false,
          "internalType": "uint256",
          "name": "timestamp",
          "type": "uint256"
        }
      ],
      "name": "YieldRoutedViaXCM",
      "type": "event"
    },
    {
      "anonymous": false,
      "inputs": [
        {
          "indexed": true,
          "internalType": "uint32",
          "name": "destParachainId",
          "type": "uint32"
        },
        {
          "indexed": true,
          "internalType": "address",
          "name": "token",
          "type": "address"
        },
        {
          "indexed": false,
          "internalType": "uint256",
          "name": "amount",
          "type": "uint256"
        },
        {
          "indexed": true,
          "internalType": "uint8",
          "name": "assetType",
          "type": "uint8"
        },
        {
          "indexed": false,
          "internalType": "uint256",
          "name": "riskScore",
          "type": "uint256"
        },
        {
          "indexed": false,
          "internalType": "bytes",
          "name": "assetData",
          "type": "bytes"
        },
        {
          "indexed": false,
          "internalType": "uint256",
          "name": "timestamp",
          "type": "uint256"
        }
      ],
      "name": "YieldRoutedViaXCMWithAssetType",
      "type": "event"
    },
    {
      "inputs": [],
      "name": "BASIS_POINTS",
      "outputs": [
        {
          "internalType": "uint256",
          "name": "",
          "type": "uint256"
        }
      ],
      "stateMutability": "view",
      "type": "function"
    },
    {
      "inputs": [],
      "name": "DEFAULT_POLKADOT_XCM",
      "outputs": [
        {
          "internalType": "address",
          "name": "",
          "type": "address"
        }
      ],
      "stateMutability": "view",
      "type": "function"
    },
    {
      "inputs": [],
      "name": "MAX_RISK_SCORE",
      "outputs": [
        {
          "internalType": "uint256",
          "name": "",
          "type": "uint256"
        }
      ],
      "stateMutability": "view",
      "type": "function"
    },
    {
      "inputs": [],
      "name": "MAX_SLIPPAGE_BPS",
      "outputs": [
        {
          "internalType": "uint256",
          "name": "",
          "type": "uint256"
        }
      ],
      "stateMutability": "view",
      "type": "function"
    },
    {
      "inputs": [],
      "name": "REBALANCE_THRESHOLD_BPS",
      "outputs": [
        {
          "internalType": "uint256",
          "name": "",
          "type": "uint256"
        }
      ],
      "stateMutability": "view",
      "type": "function"
    },
    {
      "inputs": [
        {
          "internalType": "bytes32",
          "name": "",
          "type": "bytes32"
        }
      ],
      "name": "activeRebalances",
      "outputs": [
        {
          "internalType": "bool",
          "name": "",
          "type": "bool"
        }
      ],
      "stateMutability": "view",
      "type": "function"
    },
    {
      "inputs": [
        {
          "internalType": "address",
          "name": "token",
          "type": "address"
        }
      ],
      "name": "addSupportedToken",
      "outputs": [],
      "stateMutability": "nonpayable",
      "type": "function"
    },
    {
      "inputs": [],
      "name": "aiOracleAddress",
      "outputs": [
        {
          "internalType": "address",
          "name": "",
          "type": "address"
        }
      ],
      "stateMutability": "view",
      "type": "function"
    },
    {
      "inputs": [
        {
          "internalType": "uint32",
          "name": "parachainId",
          "type": "uint32"
        },
        {
          "internalType": "address",
          "name": "token",
          "type": "address"
        }
      ],
      "name": "calculateDeviation",
      "outputs": [
        {
          "internalType": "uint256",
          "name": "deviation",
          "type": "uint256"
        },
        {
          "internalType": "bool",
          "name": "isAbove",
          "type": "bool"
        }
      ],
      "stateMutability": "view",
      "type": "function"
    },
    {
      "inputs": [
        {
          "internalType": "uint32",
          "name": "parachainId",
          "type": "uint32"
        },
        {
          "internalType": "address",
          "name": "token",
          "type": "address"
        }
      ],
      "name": "calculateParachainWeight",
      "outputs": [
        {
          "internalType": "uint256",
          "name": "weight",
          "type": "uint256"
        }
      ],
      "stateMutability": "view",
      "type": "function"
    },
    {
      "inputs": [
        {
          "internalType": "uint32",
          "name": "parachainId",
          "type": "uint32"
        },
        {
          "internalType": "address",
          "name": "token",
          "type": "address"
        }
      ],
      "name": "calculateRebalanceAmount",
      "outputs": [
        {
          "internalType": "uint256",
          "name": "amount",
          "type": "uint256"
        },
        {
          "internalType": "bool",
          "name": "isDeposit",
          "type": "bool"
        }
      ],
      "stateMutability": "view",
      "type": "function"
    },
    {
      "inputs": [
        {
          "internalType": "address",
          "name": "token",
          "type": "address"
        },
        {
          "internalType": "uint256",
          "name": "amount",
          "type": "uint256"
        }
      ],
      "name": "deposit",
      "outputs": [],
      "stateMutability": "nonpayable",
      "type": "function"
    },
    {
      "inputs": [
        {
          "internalType": "uint32",
          "name": "parachainId",
          "type": "uint32"
        },
        {
          "internalType": "address",
          "name": "token",
          "type": "address"
        }
      ],
      "name": "getRoutedToParachain",
      "outputs": [
        {
          "internalType": "uint256",
          "name": "",
          "type": "uint256"
        }
      ],
      "stateMutability": "view",
      "type": "function"
    },
    {
      "inputs": [
        {
          "internalType": "uint32",
          "name": "parachainId",
          "type": "uint32"
        }
      ],
      "name": "getTargetWeight",
      "outputs": [
        {
          "internalType": "uint256",
          "name": "",
          "type": "uint256"
        }
      ],
      "stateMutability": "view",
      "type": "function"
    },
    {
      "inputs": [
        {
          "internalType": "address",
          "name": "token",
          "type": "address"
        }
      ],
      "name": "getTotalRouted",
      "outputs": [
        {
          "internalType": "uint256",
          "name": "",
          "type": "uint256"
        }
      ],
      "stateMutability": "view",
      "type": "function"
    },
    {
      "inputs": [
        {
          "internalType": "address",
          "name": "token",
          "type": "address"
        },
        {
          "internalType": "uint8",
          "name": "assetType",
          "type": "uint8"
        }
      ],
      "name": "getTotalRoutedByAssetType",
      "outputs": [
        {
          "internalType": "uint256",
          "name": "",
          "type": "uint256"
        }
      ],
      "stateMutability": "view",
      "type": "function"
    },
    {
      "inputs": [
        {
          "internalType": "address",
          "name": "user",
          "type": "address"
        },
        {
          "internalType": "address",
          "name": "token",
          "type": "address"
        }
      ],
      "name": "getUserDeposit",
      "outputs": [
        {
          "internalType": "uint256",
          "name": "",
          "type": "uint256"
        }
      ],
      "stateMutability": "view",
      "type": "function"
    },
    {
      "inputs": [
        {
          "internalType": "address",
          "name": "token",
          "type": "address"
        }
      ],
      "name": "getVaultBalance",
      "outputs": [
        {
          "internalType": "uint256",
          "name": "",
          "type": "uint256"
        }
      ],
      "stateMutability": "view",
      "type": "function"
    },
    {
      "inputs": [
        {
          "internalType": "bytes32",
          "name": "operationId",
          "type": "bytes32"
        }
      ],
      "name": "isRebalanceActive",
      "outputs": [
        {
          "internalType": "bool",
          "name": "",
          "type": "bool"
        }
      ],
      "stateMutability": "view",
      "type": "function"
    },
    {
      "inputs": [
        {
          "internalType": "uint32",
          "name": "parachainId",
          "type": "uint32"
        },
        {
          "internalType": "address",
          "name": "token",
          "type": "address"
        }
      ],
      "name": "isRebalanceNeeded",
      "outputs": [
        {
          "internalType": "bool",
          "name": "needed",
          "type": "bool"
        }
      ],
      "stateMutability": "view",
      "type": "function"
    },
    {
      "inputs": [
        {
          "internalType": "bytes32",
          "name": "",
          "type": "bytes32"
        }
      ],
      "name": "minAmountOut",
      "outputs": [
        {
          "internalType": "uint256",
          "name": "",
          "type": "uint256"
        }
      ],
      "stateMutability": "view",
      "type": "function"
    },
    {
      "inputs": [],
      "name": "owner",
      "outputs": [
        {
          "internalType": "address",
          "name": "",
          "type": "address"
        }
      ],
      "stateMutability": "view",
      "type": "function"
    },
    {
      "inputs": [
        {
          "internalType": "uint32",
          "name": "",
          "type": "uint32"
        }
      ],
      "name": "parachainNonces",
      "outputs": [
        {
          "internalType": "uint256",
          "name": "",
          "type": "uint256"
        }
      ],
      "stateMutability": "view",
      "type": "function"
    },
    {
      "inputs": [
        {
          "internalType": "uint32",
          "name": "sourceParachainId",
          "type": "uint32"
        },
        {
          "internalType": "uint32",
          "name": "destParachainId",
          "type": "uint32"
        },
        {
          "internalType": "address",
          "name": "token",
          "type": "address"
        },
        {
          "internalType": "uint256",
          "name": "maxSlippageBps",
          "type": "uint256"
        },
        {
          "internalType": "uint256",
          "name": "deadline",
          "type": "uint256"
        },
        {
          "internalType": "uint256",
          "name": "aiRiskScore",
          "type": "uint256"
        },
        {
          "internalType": "bytes",
          "name": "assetData",
          "type": "bytes"
        },
        {
          "internalType": "uint32",
          "name": "feeAssetItem",
          "type": "uint32"
        },
        {
          "internalType": "uint64",
          "name": "weightLimit",
          "type": "uint64"
        },
        {
          "internalType": "uint8",
          "name": "assetType",
          "type": "uint8"
        }
      ],
      "name": "rebalanceVault",
      "outputs": [],
      "stateMutability": "nonpayable",
      "type": "function"
    },
    {
      "inputs": [],
      "name": "rebalancingPaused",
      "outputs": [
        {
          "internalType": "bool",
          "name": "",
          "type": "bool"
        }
      ],
      "stateMutability": "view",
      "type": "function"
    },
    {
      "inputs": [],
      "name": "renounceOwnership",
      "outputs": [],
      "stateMutability": "nonpayable",
      "type": "function"
    },
    {
      "inputs": [
        {
          "internalType": "address",
          "name": "",
          "type": "address"
        }
      ],
      "name": "routeCaps",
      "outputs": [
        {
          "internalType": "uint256",
          "name": "",
          "type": "uint256"
        }
      ],
      "stateMutability": "view",
      "type": "function"
    },
    {
      "inputs": [
        {
          "internalType": "address",
          "name": "",
          "type": "address"
        },
        {
          "internalType": "uint8",
          "name": "",
          "type": "uint8"
        }
      ],
      "name": "routeCapsByAssetType",
      "outputs": [
        {
          "internalType": "uint256",
          "name": "",
          "type": "uint256"
        }
      ],
      "stateMutability": "view",
      "type": "function"
    },
    {
      "inputs": [
        {
          "internalType": "uint32",
          "name": "destParachainId",
          "type": "uint32"
        },
        {
          "internalType": "address",
          "name": "token",
          "type": "address"
        },
        {
          "internalType": "uint256",
          "name": "amount",
          "type": "uint256"
        },
        {
          "internalType": "uint256",
          "name": "aiRiskScore",
          "type": "uint256"
        },
        {
          "internalType": "bytes",
          "name": "assetData",
          "type": "bytes"
        },
        {
          "internalType": "uint32",
          "name": "feeAssetItem",
          "type": "uint32"
        },
        {
          "internalType": "uint64",
          "name": "weightLimit",
          "type": "uint64"
        },
        {
          "internalType": "uint8",
          "name": "assetType",
          "type": "uint8"
        }
      ],
      "name": "routeYieldViaXCM",
      "outputs": [],
      "stateMutability": "nonpayable",
      "type": "function"
    },
    {
      "inputs": [
        {
          "internalType": "uint32",
          "name": "",
          "type": "uint32"
        },
        {
          "internalType": "address",
          "name": "",
          "type": "address"
        }
      ],
      "name": "routedToParachain",
      "outputs": [
        {
          "internalType": "uint256",
          "name": "",
          "type": "uint256"
        }
      ],
      "stateMutability": "view",
      "type": "function"
    },
    {
      "inputs": [
        {
          "internalType": "address",
          "name": "newOracleAddress",
          "type": "address"
        }
      ],
      "name": "setAIOracleAddress",
      "outputs": [],
      "stateMutability": "nonpayable",
      "type": "function"
    },
    {
      "inputs": [
        {
          "internalType": "address",
          "name": "token",
          "type": "address"
        },
        {
          "internalType": "uint256",
          "name": "cap",
          "type": "uint256"
        }
      ],
      "name": "setRouteCap",
      "outputs": [],
      "stateMutability": "nonpayable",
      "type": "function"
    },
    {
      "inputs": [
        {
          "internalType": "address",
          "name": "token",
          "type": "address"
        },
        {
          "internalType": "uint8",
          "name": "assetType",
          "type": "uint8"
        },
        {
          "internalType": "uint256",
          "name": "cap",
          "type": "uint256"
        }
      ],
      "name": "setRouteCapByAssetType",
      "outputs": [],
      "stateMutability": "nonpayable",
      "type": "function"
    },
    {
      "inputs": [
        {
          "internalType": "uint32",
          "name": "parachainId",
          "type": "uint32"
        },
        {
          "internalType": "uint256",
          "name": "weight",
          "type": "uint256"
        }
      ],
      "name": "setTargetWeight",
      "outputs": [],
      "stateMutability": "nonpayable",
      "type": "function"
    },
    {
      "inputs": [
        {
          "internalType": "address",
          "name": "newXCMPrecompile",
          "type": "address"
        }
      ],
      "name": "setXCMPrecompileAddress",
      "outputs": [],
      "stateMutability": "nonpayable",
      "type": "function"
    },
    {
      "inputs": [
        {
          "internalType": "address",
          "name": "",
          "type": "address"
        }
      ],
      "name": "supportedTokens",
      "outputs": [
        {
          "internalType": "bool",
          "name": "",
          "type": "bool"
        }
      ],
      "stateMutability": "view",
      "type": "function"
    },
    {
      "inputs": [
        {
          "internalType": "uint32",
          "name": "",
          "type": "uint32"
        }
      ],
      "name": "targetWeights",
      "outputs": [
        {
          "internalType": "uint256",
          "name": "",
          "type": "uint256"
        }
      ],
      "stateMutability": "view",
      "type": "function"
    },
    {
      "inputs": [],
      "name": "toggleRebalancing",
      "outputs": [],
      "stateMutability": "nonpayable",
      "type": "function"
    },
    {
      "inputs": [],
      "name": "toggleXcmRoute",
      "outputs": [],
      "stateMutability": "nonpayable",
      "type": "function"
    },
    {
      "inputs": [
        {
          "internalType": "address",
          "name": "",
          "type": "address"
        }
      ],
      "name": "totalDeposits",
      "outputs": [
        {
          "internalType": "uint256",
          "name": "",
          "type": "uint256"
        }
      ],
      "stateMutability": "view",
      "type": "function"
    },
    {
      "inputs": [
        {
          "internalType": "address",
          "name": "",
          "type": "address"
        }
      ],
      "name": "totalRouted",
      "outputs": [
        {
          "internalType": "uint256",
          "name": "",
          "type": "uint256"
        }
      ],
      "stateMutability": "view",
      "type": "function"
    },
    {
      "inputs": [
        {
          "internalType": "address",
          "name": "",
          "type": "address"
        },
        {
          "internalType": "uint8",
          "name": "",
          "type": "uint8"
        }
      ],
      "name": "totalRoutedByAssetType",
      "outputs": [
        {
          "internalType": "uint256",
          "name": "",
          "type": "uint256"
        }
      ],
      "stateMutability": "view",
      "type": "function"
    },
    {
      "inputs": [
        {
          "internalType": "address",
          "name": "newOwner",
          "type": "address"
        }
      ],
      "name": "transferOwnership",
      "outputs": [],
      "stateMutability": "nonpayable",
      "type": "function"
    },
    {
      "inputs": [
        {
          "internalType": "address",
          "name": "",
          "type": "address"
        },
        {
          "internalType": "address",
          "name": "",
          "type": "address"
        }
      ],
      "name": "userDeposits",
      "outputs": [
        {
          "internalType": "uint256",
          "name": "",
          "type": "uint256"
        }
      ],
      "stateMutability": "view",
      "type": "function"
    },
    {
      "inputs": [
        {
          "internalType": "address",
          "name": "token",
          "type": "address"
        },
        {
          "internalType": "uint256",
          "name": "amount",
          "type": "uint256"
        }
      ],
      "name": "withdraw",
      "outputs": [],
      "stateMutability": "nonpayable",
      "type": "function"
    },
    {
      "inputs": [],
      "name": "xcmPrecompileAddress",
      "outputs": [
        {
          "internalType": "address",
          "name": "",
          "type": "address"
        }
      ],
      "stateMutability": "view",
      "type": "function"
    },
    {
      "inputs": [],
      "name": "xcmRoutingPaused",
      "outputs": [
        {
          "internalType": "bool",
          "name": "",
          "type": "bool"
        }
      ],
      "stateMutability": "view",
      "type": "function"
    }
  ],
  "bytecode": "0x6080346200012857601f620023a638819003918201601f19168301916001600160401b038311848410176200012d57808492604094855283398101031262000128576200005a6020620000528362000143565b920162000143565b906001600160a01b039081169081156200010f576000549260018060a01b03199280848616176000558260405195167f8be0079c531659141344cd1fd0a4f28419497f9722a3daafe3b4186f6b6457e0600080a360017f9b779b17422d0df92223018b32b4d1fa46e071723d6817e2486d003becc55f005516801562000100576108019250816002541617600255600154161760015560405161224d9081620001598239f35b63102837e160e21b8352600483fd5b604051631e4fbdf760e01b815260006004820152602490fd5b600080fd5b634e487b7160e01b600052604160045260246000fd5b51906001600160a01b0382168203620001285756fe6080604052600436101561001257600080fd5b6000803560e01c80631209813c14611dfd578063148c658c14611db257806316b2407814611d645780632e77d263146114455780632fe90473146113d4578063319dda0914610bdb5780633b77ff9214610e2c5780633dfefe3614610e035780634104b2fc1461076b578063436d803914610db457806345f1913114610d9857806347e7ef2414610c5b5780634ee43a8414610c3e57806350aa465a14610c1457806351f4a71d14610bdb57806357b2a754146105a65780635e76e49d14610b9e57806368c4ac2614610b5f5780636d69fcaf14610ade5780636e81561614610a7d578063715018a614610a235780637b15e5df146109fa5780637c105d7c146109c55780637c3d25b4146109645780637d145ddd146109415780637d7c47b01461068e5780638c5edc1c146108c65780638da5cb5b1461089f5780638e4c1b6e14610866578063925e6f391461081657806394e1c74c1461079a5780639d613e151461076b578063a973e9be14610730578063ab85e05714610713578063bfaecee5146106c3578063c03111e51461068e578063d3d7c002146105f9578063da8cab3a146105a6578063e1f1c4a714610589578063e229cd761461056c578063e940325614610533578063ecf3ed52146104a4578063f2fde38b14610419578063f3fef3a314610299578063f4ea7d0e1461027c578063fa2188de146102475763fd4400231461022257600080fd5b34610244578060031936011261024457602060ff600e54166040519015158152f35b80fd5b503461024457602036600319011261024457604060209163ffffffff61026b611ec1565b168152600b83522054604051908152f35b503461024457806003193601126102445760206040516108018152f35b5034610244576040366003190112610244576102b3611e85565b6024356102be611f51565b8015610407573383526004602090815260408085206001600160a01b0390941660008181529483529320548281106103dd575033845260048152604084208360005281526040600020610312838254611f81565b9055828452600581526040842061032a838254611f81565b905560405163a9059cbb60e01b8552336004526024839052818560448180885af160018651148116156103be575b81604052156103a8575060405191825242908201527fc2b4a290c20fb28939d29f102514fbffd2b73c059ffba8b78250c94161d5fcc660403392a360016000805160206121f88339815191525580f35b635274afe760e01b815260048101849052602490fd5b60018115166103d457843b15153d151616610358565b503d85823e3d90fd5b83836084926040519263e802653d60e01b8452336004850152602484015260448301526064820152fd5b604051635e85ae7360e01b8152600490fd5b503461024457602036600319011261024457610433611e85565b61043b611f02565b6001600160a01b0390811690811561048b57600054826001600160601b0360a01b821617600055167f8be0079c531659141344cd1fd0a4f28419497f9722a3daafe3b4186f6b6457e0600080a380f35b604051631e4fbdf760e01b815260048101849052602490fd5b5034610244576040366003190112610244576104be611ec1565b602435906104ca611f02565b612710821161051a57604063ffffffff7f370abf3d648787d2c9cbadb6760e6a955556ce7928b6aa30e55b17f25e243a5b921692838552600c60205280828620558151908152426020820152a280f35b6040516302c45ac960e51b815260048101839052602490fd5b5034610244576020366003190112610244576020906040906001600160a01b0361055b611e85565b168152600583522054604051908152f35b503461024457806003193601126102445760206040516103e88152f35b503461024457806003193601126102445760206040516127108152f35b50346102445760403660031901126102445760406105c2611ec1565b9163ffffffff6105d0611e9b565b93168152600d602052209060018060a01b03166000526020526020604060002054604051908152f35b50346102445760209081600319360112610244576024826001600160a01b03610620611e85565b16604051928380926370a0823160e01b82523060048301525afa9182156106825791610650575b50604051908152f35b90508181813d831161067b575b6106678183611fb8565b81010312610676575138610647565b600080fd5b503d61065d565b604051903d90823e3d90fd5b503461024457602036600319011261024457604060209163ffffffff6106b2611ec1565b168152600c83522054604051908152f35b50346102445760403660031901126102445760ff60406106e1611e85565b926106ea611eb1565b9360018060a01b0316815260096020522091166000526020526020604060002054604051908152f35b503461024457806003193601126102445760206040516101f48152f35b503461024457604036600319011261024457602061075d61074f611ec1565b610757611e9b565b9061211a565b506101f46040519110158152f35b50346102445760203660031901126102445760ff60406020926004358152601084522054166040519015158152f35b5034610244576020366003190112610244576107b4611e85565b6107bc611f02565b6001600160a01b0316801561080457600280546001600160a01b031916821790557f01db34cc1fec70288d8d48ba67dae8f2c3cfc760b51fb6d30300257d7f7911b38280a280f35b604051635521068160e01b8152600490fd5b50346102445760403660031901126102445760ff6040610834611e85565b9261083d611eb1565b9360018060a01b0316815260076020522091166000526020526020604060002054604051908152f35b5034610244576020366003190112610244576020906040906001600160a01b0361088e611e85565b168152600883522054604051908152f35b5034610244578060031936011261024457546040516001600160a01b039091168152602090f35b5034610244576020366003190112610244576108e0611e85565b6108e8611f02565b6001600160a01b0316801561092f57600180546001600160a01b031916821790557e71673f51b931458d449ab7624c45aa051a5337d7483fc981a15832c6a23b418280a280f35b604051633cc2effd60e01b8152600490fd5b5034610244578060031936011261024457602060ff600a54166040519015158152f35b503461024457806003193601126102445761097d611f02565b600a5460ff80821615168060ff19831617600a5582604051921617151581527fb99f4ef0067b77d79ad6e0684db25debf5550c4ab9ffe83fcbe09a705d9fd65b60203392a280f35b50346102445760403660031901126102445760206109f26109e4611ec1565b6109ec611e9b565b906120a5565b604051908152f35b50346102445780600319360112610244576002546040516001600160a01b039091168152602090f35b5034610244578060031936011261024457610a3c611f02565b600080546001600160a01b0319811682556001600160a01b03167f8be0079c531659141344cd1fd0a4f28419497f9722a3daafe3b4186f6b6457e08280a380f35b5034610244578060031936011261024457610a96611f02565b600e5460ff80821615168060ff19831617600e5582604051921617151581527fadd1b61921674502a28b0e8c17e0267f30e5e0c6af14342a28fbe66998ae0f0c60203392a280f35b503461024457602036600319011261024457610af8611e85565b610b00611f02565b6001600160a01b03168015610b4d57808252600360205260408220805460ff191660011790557fea3145306a87baeba6bb1a8b5c8d3744f840a81cb436b3509f64fc978600cdfb8280a280f35b604051630f58058360e11b8152600490fd5b50346102445760203660031901126102445760209060ff906040906001600160a01b03610b8a611e85565b168152600384522054166040519015158152f35b503461024457604036600319011261024457610bc9610bbb611ec1565b610bc3611e9b565b90612162565b60408051928352901515602083015290f35b5034610244576020366003190112610244576020906040906001600160a01b03610c03611e85565b168152600683522054604051908152f35b50346102445760203660031901126102445760406020916004358152600f83522054604051908152f35b503461024457604036600319011261024457610bc961074f611ec1565b503461024457604036600319011261024457610c75611e85565b60243590610c81611f51565b6001600160a01b031680835260036020908152604084205491929160ff1615610d7f578115610407576040516323b872dd60e01b855233600452306024526044839052818560648180885af16001865114811615610d69575b8160405285606052156103a8575033845260048152604084208360005281526040600020610d09838254611f2e565b90558284526005815260408420610d21838254611f2e565b905560405191825242908201527fdcbc1c05240f31ff3ad067ef1ee35ce4997762752e3a095284754544f4c709d760403392a360016000805160206121f88339815191525580f35b60018115166103d457843b15153d151616610cda565b6040516306439c6b60e01b815260048101849052602490fd5b50346102445780600319360112610244576020604051604b8152f35b503461024457604036600319011261024457610dce611e85565b6040610dd8611e9b565b9260018060a01b03809316815260046020522091166000526020526020604060002054604051908152f35b50346102445780600319360112610244576001546040516001600160a01b039091168152602090f35b50346102445761010036600319011261024457610e47611ec1565b610e4f611e9b565b67ffffffffffffffff6084358181116113d057610e70903690600401611ed4565b909163ffffffff60a4351660a435036106765760c4351660c435036106765760ff60e4351660e43503610676576002546001600160a01b039190821633036113b857610eba611f51565b60ff600a54166113a657604b606435101561138c5760443515610407578184168652600360205260ff604087205416156113725781841686526008602052604086205480151580611355575b6113365750818416865260096020526040862060ff60e4351660005260205260406000205480151580611303575b6112a057506040516370a0823160e01b81523060048201526020816024818887165afa908115611295578791611263575b50604435811061122e575085908285168252600660205260408220610f8d6044358254611f2e565b9055828516825260076020526040822060ff60e435166000526020526040600020610fbb6044358254611f2e565b905563ffffffff861693848352600d602052604083208487166000526020526040600020610fec6044358254611f2e565b90558360015416803b1561122a578361102781928a604051978880948193631d78434d60e31b835260c435908b8b60a4359260048701611ffb565b03925af193841561121d5786946111fe575b5050907f120753919acfc6dc5b5a15c5c548f4dcf4536d795e437e60a160cdf60513ef0291604051847f461783dbca28a86ad1f0e8ad70cc329d8fd4a930d01578fb68ade13280c176b9878a16928061109a42888860643560443586612037565b0390a360405160ff60e4351690857f955af107da935bb8513fe188599cb7e72efa85b6ee537761cce8fb2768e54cb2888b1692806110e042898960643560443586612037565b0390a46110fa60405192839260c4359160a435918561205f565b0390a2818552600b602052604085205493600185018086116111ea57907f6acd5226ab3c7373c75bdcc196d576c1d79a9b17454d0053ffac64b089e2bb199291848852600b60205260408820556040516111a2816111946020820194604435903342889290916058949284526001600160601b03199060601b16602084015263ffffffff60e01b9060e01b16603483015260388201520190565b03601f198101835282611fb8565b51902060408051604435815260208101929092526064359082015260e43560ff16606082015242608082015293169260a090a460016000805160206121f88339815191525580f35b634e487b7160e01b87526011600452602487fd5b61120b9192939450611f8e565b611219579083918738611039565b8680fd5b50604051903d90823e3d90fd5b8380fd5b604051630f9b4abf60e31b81526001600160a01b038616600482015260248101919091526044803590820152606490fd5b0390fd5b90506020813d60201161128d575b8161127e60209383611fb8565b81010312610676575138610f65565b3d9150611271565b6040513d89823e3d90fd5b84604088858316815260076020522060ff60e4351660005260205261125f6112cf604435604060002054611f2e565b604051634585cfd960e01b81526001600160a01b039093166004840152602483015260448201929092529081906064820190565b50828516875260076020526040872060ff60e4351660005260205280611330604435604060002054611f2e565b11610f34565b8461125f6112cf89868416815260066020526040604435912054611f2e565b5060066020528061136c60443560408a2054611f2e565b11610f06565b6040516306439c6b60e01b81528285166004820152602490fd5b604051632977070b60e21b81526064356004820152602490fd5b604051631a2b1f8560e01b8152600490fd5b604051630fbe58b160e31b8152336004820152602490fd5b8480fd5b5034610244576040366003190112610244576113ee611e85565b602435906113fa611f02565b6001600160a01b0316908115610b4d5760207f62b60f36dca449eb45f3a0831bad4ff6d5177433c22f050aa9bf87794e5b7ac99183855260088252806040862055604051908152a280f35b50346102445761014036600319011261024457611460611ec1565b63ffffffff6024351660243503611d60576044356001600160a01b0381169003611d60576084359060c43567ffffffffffffffff811161122a576114a8903690600401611ed4565b9263ffffffff60e4351660e435036113d05767ffffffffffffffff610104351661010435036113d05760ff610124351661012435036113d0576002546001600160a01b031633036113b8576114fb611f51565b60ff600e54166113a657804211611d4257506103e88060643511611d225750604b60a4351015611d08576115316044358361211a565b919091158015611cfd575b611cdc5761154e60443560243561211a565b611cbc575061155f60443584612162565b50938415610407576040519263ffffffff60e01b8560e01b16602085015263ffffffff60e01b60243560e01b1660248501526001600160601b031960443560601b16602885015242603c8501523360601b605c8501526050845283608081011067ffffffffffffffff608086011117611ca857608084016040528351602085012093848852601060205260ff604089205416611c945750838752601060205260408720805460ff1916600117905561162661271061161f60643589612092565b0487611f81565b848852600f602052604088205560405190868252602082015242604082015260018060a01b03604435169063ffffffff60243516907f14d008b452c40c4f8cade2f8494f6a5cf896557ac3ac7c79d20e213208bc46ea606063ffffffff891692a460ff600a54166113a6576044356001600160a01b031686526003602052604086205460ff1615611c71576044356001600160a01b031686526008602052604086205480151580611c56575b611c3357506044356001600160a01b031686526009602090815260408088206101243560ff16895290915286205480151580611bfb575b611b9957506040516370a0823160e01b81523060048201526020816024816044356001600160a01b03165afa908115611295578791611b67575b50858110611b3557506044356001600160a01b031686526006602052604086208054611770908790611f2e565b905560018060a01b0360443516865260076020526040862060ff61012435168752602052604086206117a3868254611f2e565b905563ffffffff84168652600d6020526040862060018060a01b036044351687526020528460408720541015611afd575b63ffffffff602435168652600d6020526040862060018060a01b0360443516875260205260408620611807868254611f2e565b90556001546001600160a01b0316803b1561121957866040518092631d78434d60e31b82528183816118476101043560e4358a8c60243560048701611ffb565b03925af1801561129557611ac6575b506119437f120753919acfc6dc5b5a15c5c548f4dcf4536d795e437e60a160cdf60513ef029160405160018060a01b0360443516907f461783dbca28a86ad1f0e8ad70cc329d8fd4a930d01578fb68ade13280c176b963ffffffff6024351691806118c98c878b429260a4359086612037565b0390a360405160ff61012435169060018060a01b0360443516907f955af107da935bb8513fe188599cb7e72efa85b6ee537761cce8fb2768e54cb263ffffffff6024351691806119218d888c429260a4359086612037565b0390a460405191829163ffffffff6024351695610104359160e435918561205f565b0390a263ffffffff602435168452600b602052604084205460018101808211611ab25763ffffffff602435168652600b602052604086205560405160208101906119c881611194886024353342889290916058949284526001600160601b03199060601b16602084015263ffffffff60e01b9060e01b16603483015260388201520190565b51902060408051868152602081019290925260a435908201526101243560ff1660608201524260808201526001600160a01b03604435169063ffffffff60243516907f6acd5226ab3c7373c75bdcc196d576c1d79a9b17454d0053ffac64b089e2bb199060a090a4835260106020526040832060ff198154169055600f60205282604081205560405191825282602083015242604083015260018060a01b0360443516917fb655f8788303cba6cf6f338206804e3f0eba435431e0036fb3688100d8cedae4606063ffffffff8060243516941692a460016000805160206121f88339815191525580f35b634e487b7160e01b86526011600452602486fd5b7f120753919acfc6dc5b5a15c5c548f4dcf4536d795e437e60a160cdf60513ef029196611af561194392611f8e565b969150611856565b63ffffffff84168652600d6020526040862060018060a01b0360443516875260205260408620611b2e868254611f81565b90556117d4565b604051630f9b4abf60e31b8152604480356001600160a01b031660048301526024820192909252908101869052606490fd5b90506020813d602011611b91575b81611b8260209383611fb8565b81010312611219575138611743565b3d9150611b75565b611bc88660408960018060a01b03604435168152600760205281812060ff610124351682526020522054611f2e565b604051634585cfd960e01b8152604480356001600160a01b03166004830152602482019290925290810191909152606490fd5b5060018060a01b0360443516875260076020526040872060ff6101243516885260205280611c2d8760408a2054611f2e565b11611709565b6044356001600160a01b0316875260066020526040872054611bc8908790611f2e565b50600660205280611c6b8760408a2054611f2e565b116116d2565b6040516306439c6b60e01b81526044356001600160a01b03166004820152602490fd5b6080600491635019131760e01b8282015201fd5b634e487b7160e01b87526041600452602487fd5b6044906040519063c074f7f760e01b825260048201526101f46024820152fd5b60405163c074f7f760e01b8152600481018390526101f46024820152604490fd5b506101f4821061153c565b604051632977070b60e21b815260a4356004820152602490fd5b604490604051906371c4efed60e01b825260643560048301526024820152fd5b6044906040519063041f95d160e51b82526004820152426024820152fd5b5080fd5b5034610244576040366003190112610244576040602091611d83611e85565b611d8b611eb1565b6001600160a01b0390911682526007845282822060ff909116825283522054604051908152f35b5034610244576040366003190112610244576040602091611dd1611e85565b611dd9611e9b565b6001600160a01b039182168352600485528383209116825283522054604051908152f35b503461024457606036600319011261024457611e17611e85565b611e1f611eb1565b9060443590611e2c611f02565b6001600160a01b0316908115610b4d5760207f0cf0d15b14ca1d24aed618044f01b2e7aabb3bd30c1ea48537178e19ad021268918386526009825260ff604087209516948587528252806040872055604051908152a380f35b600435906001600160a01b038216820361067657565b602435906001600160a01b038216820361067657565b6024359060ff8216820361067657565b6004359063ffffffff8216820361067657565b9181601f840112156106765782359167ffffffffffffffff8311610676576020838186019501011161067657565b6000546001600160a01b03163303611f1657565b60405163118cdaa760e01b8152336004820152602490fd5b91908201809211611f3b57565b634e487b7160e01b600052601160045260246000fd5b6000805160206121f88339815191526002815414611f6f5760029055565b604051633ee5aeb560e01b8152600490fd5b91908203918211611f3b57565b67ffffffffffffffff8111611fa257604052565b634e487b7160e01b600052604160045260246000fd5b90601f8019910116810190811067ffffffffffffffff821117611fa257604052565b908060209392818452848401376000828201840152601f01601f1916010190565b9395949061202a67ffffffffffffffff9360609563ffffffff8094168852608060208901526080880191611fda565b9616604085015216910152565b95949361205a926060949288526020880152608060408801526080870191611fda565b930152565b92949363ffffffff61208567ffffffffffffffff93604095606088526060880191611fda565b9616602085015216910152565b81810292918115918404141715611f3b57565b6001600160a01b039091166000818152600660205260408120549290919083156121135763ffffffff168252600d60205260408220908252602052604081205490612710918281029281840414901517156120ff57500490565b634e487b7160e01b81526011600452602490fd5b5050905090565b9061212a63ffffffff91836120a5565b91166000908152600c602052604090205490818110612153579061214d91611f81565b90600190565b61215c91611f81565b90600090565b6101f49291612171818361211a565b94116121eb5760018060a01b03169260009380855260066020526127106121b163ffffffff6040882054951694858852600c602052604088205490612092565b04928552600d602052604085209085526020526040842054906000146121df57906121db91611f81565b9190565b9061214d929350611f81565b5050905060009060009056fe9b779b17422d0df92223018b32b4d1fa46e071723d6817e2486d003becc55f00a2646970667358221220fb033b66a17914219b8619b07bbbf5d5f5bdfce8f19d3aa896ca2da4168e0f8464736f6c63430008140033",
  "linkReferences": {},
  "deployedLinkReferences": {}
}