{
  "_format": "hh-sol-artifact-1",
  "contractName": "AegisVault",
  "sourceName": "contracts/AegisVault.sol",
  "abi": [
    {
      "inputs": [
        {
          "internalType": "address",
          "name": "initialOwner",
          "type": "address"
        },
        {
          "internalType": "address",
          "name": "initialAiOracle",
          "type": "address"
        }
      ],
      "stateMutability": "nonpayable",
      "type": "constructor"
    },
    {
      "inputs": [],
      "name": "AmountMustBeGreaterThanZero",
      "type": "error"
    },
    {
      "inputs": [
        {
          "internalType": "address",
          "name": "account",
          "type": "address"
        },
        {
          "internalType": "address",
          "name": "token",
          "type": "address"
        },
        {
          "internalType": "uint256",
          "name": "available",
          "type": "uint256"
        },
        {
          "internalType": "uint256",
          "name": "requested",
          "type": "uint256"
        }
      ],
      "name": "InsufficientDepositBalance",
      "type": "error"
    },
    {
      "inputs": [
        {
          "internalType": "address",
          "name": "token",
          "type": "address"
        },
        {
          "internalType": "uint256",
          "name": "available",
          "type": "uint256"
        },
        {
          "internalType": "uint256",
          "name": "requested",
          "type": "uint256"
        }
      ],
      "name": "InsufficientRoutedBalance",
      "type": "error"
    },
    {
      "inputs": [],
      "name": "InvalidAIOracleAddress",
      "type": "error"
    },
    {
      "inputs": [],
      "name": "InvalidOracleAddress",
      "type": "error"
    },
    {
      "inputs": [],
      "name": "InvalidTokenAddress",
      "type": "error"
    },
    {
      "inputs": [],
      "name": "InvalidXCMPrecompileAddress",
      "type": "error"
    },
    {
      "inputs": [
        {
          "internalType": "address",
          "name": "caller",
          "type": "address"
        }
      ],
      "name": "OnlyAIOracle",
      "type": "error"
    },
    {
      "inputs": [
        {
          "internalType": "address",
          "name": "owner",
          "type": "address"
        }
      ],
      "name": "OwnableInvalidOwner",
      "type": "error"
    },
    {
      "inputs": [
        {
          "internalType": "address",
          "name": "account",
          "type": "address"
        }
      ],
      "name": "OwnableUnauthorizedAccount",
      "type": "error"
    },
    {
      "inputs": [],
      "name": "ReentrancyGuardReentrantCall",
      "type": "error"
    },
    {
      "inputs": [
        {
          "internalType": "uint256",
          "name": "riskScore",
          "type": "uint256"
        }
      ],
      "name": "RiskScoreTooHigh",
      "type": "error"
    },
    {
      "inputs": [
        {
          "internalType": "address",
          "name": "token",
          "type": "address"
        }
      ],
      "name": "SafeERC20FailedOperation",
      "type": "error"
    },
    {
      "inputs": [
        {
          "internalType": "address",
          "name": "token",
          "type": "address"
        }
      ],
      "name": "TokenNotSupported",
      "type": "error"
    },
    {
      "anonymous": false,
      "inputs": [
        {
          "indexed": true,
          "internalType": "address",
          "name": "newOracleAddress",
          "type": "address"
        }
      ],
      "name": "AIOracleUpdated",
      "type": "event"
    },
    {
      "anonymous": false,
      "inputs": [
        {
          "indexed": true,
          "internalType": "address",
          "name": "user",
          "type": "address"
        },
        {
          "indexed": true,
          "internalType": "address",
          "name": "token",
          "type": "address"
        },
        {
          "indexed": false,
          "internalType": "uint256",
          "name": "amount",
          "type": "uint256"
        },
        {
          "indexed": false,
          "internalType": "uint256",
          "name": "timestamp",
          "type": "uint256"
        }
      ],
      "name": "Deposit",
      "type": "event"
    },
    {
      "anonymous": false,
      "inputs": [
        {
          "indexed": true,
          "internalType": "address",
          "name": "previousOwner",
          "type": "address"
        },
        {
          "indexed": true,
          "internalType": "address",
          "name": "newOwner",
          "type": "address"
        }
      ],
      "name": "OwnershipTransferred",
      "type": "event"
    },
    {
      "anonymous": false,
      "inputs": [
        {
          "indexed": true,
          "internalType": "address",
          "name": "token",
          "type": "address"
        }
      ],
      "name": "TokenSupported",
      "type": "event"
    },
    {
      "anonymous": false,
      "inputs": [
        {
          "indexed": true,
          "internalType": "address",
          "name": "user",
          "type": "address"
        },
        {
          "indexed": true,
          "internalType": "address",
          "name": "token",
          "type": "address"
        },
        {
          "indexed": false,
          "internalType": "uint256",
          "name": "amount",
          "type": "uint256"
        },
        {
          "indexed": false,
          "internalType": "uint256",
          "name": "timestamp",
          "type": "uint256"
        }
      ],
      "name": "Withdrawal",
      "type": "event"
    },
    {
      "anonymous": false,
      "inputs": [
        {
          "indexed": true,
          "internalType": "uint32",
          "name": "destParachainId",
          "type": "uint32"
        },
        {
          "indexed": false,
          "internalType": "bytes",
          "name": "assetData",
          "type": "bytes"
        },
        {
          "indexed": false,
          "internalType": "uint32",
          "name": "feeAssetItem",
          "type": "uint32"
        },
        {
          "indexed": false,
          "internalType": "uint64",
          "name": "weightLimit",
          "type": "uint64"
        }
      ],
      "name": "XCMCalled",
      "type": "event"
    },
    {
      "anonymous": false,
      "inputs": [
        {
          "indexed": true,
          "internalType": "address",
          "name": "newXCMPrecompile",
          "type": "address"
        }
      ],
      "name": "XCMPrecompileUpdated",
      "type": "event"
    },
    {
      "anonymous": false,
      "inputs": [
        {
          "indexed": true,
          "internalType": "uint32",
          "name": "destParachainId",
          "type": "uint32"
        },
        {
          "indexed": true,
          "internalType": "address",
          "name": "token",
          "type": "address"
        },
        {
          "indexed": false,
          "internalType": "uint256",
          "name": "amount",
          "type": "uint256"
        },
        {
          "indexed": false,
          "internalType": "uint256",
          "name": "riskScore",
          "type": "uint256"
        },
        {
          "indexed": false,
          "internalType": "bytes",
          "name": "assetData",
          "type": "bytes"
        },
        {
          "indexed": false,
          "internalType": "uint256",
          "name": "timestamp",
          "type": "uint256"
        }
      ],
      "name": "YieldRoutedViaXCM",
      "type": "event"
    },
    {
      "inputs": [],
      "name": "DEFAULT_POLKADOT_XCM",
      "outputs": [
        {
          "internalType": "address",
          "name": "",
          "type": "address"
        }
      ],
      "stateMutability": "view",
      "type": "function"
    },
    {
      "inputs": [],
      "name": "MAX_RISK_SCORE",
      "outputs": [
        {
          "internalType": "uint256",
          "name": "",
          "type": "uint256"
        }
      ],
      "stateMutability": "view",
      "type": "function"
    },
    {
      "inputs": [
        {
          "internalType": "address",
          "name": "token",
          "type": "address"
        }
      ],
      "name": "addSupportedToken",
      "outputs": [],
      "stateMutability": "nonpayable",
      "type": "function"
    },
    {
      "inputs": [],
      "name": "aiOracleAddress",
      "outputs": [
        {
          "internalType": "address",
          "name": "",
          "type": "address"
        }
      ],
      "stateMutability": "view",
      "type": "function"
    },
    {
      "inputs": [
        {
          "internalType": "address",
          "name": "token",
          "type": "address"
        },
        {
          "internalType": "uint256",
          "name": "amount",
          "type": "uint256"
        }
      ],
      "name": "deposit",
      "outputs": [],
      "stateMutability": "nonpayable",
      "type": "function"
    },
    {
      "inputs": [
        {
          "internalType": "address",
          "name": "token",
          "type": "address"
        }
      ],
      "name": "getTotalRouted",
      "outputs": [
        {
          "internalType": "uint256",
          "name": "",
          "type": "uint256"
        }
      ],
      "stateMutability": "view",
      "type": "function"
    },
    {
      "inputs": [
        {
          "internalType": "address",
          "name": "user",
          "type": "address"
        },
        {
          "internalType": "address",
          "name": "token",
          "type": "address"
        }
      ],
      "name": "getUserDeposit",
      "outputs": [
        {
          "internalType": "uint256",
          "name": "",
          "type": "uint256"
        }
      ],
      "stateMutability": "view",
      "type": "function"
    },
    {
      "inputs": [
        {
          "internalType": "address",
          "name": "token",
          "type": "address"
        }
      ],
      "name": "getVaultBalance",
      "outputs": [
        {
          "internalType": "uint256",
          "name": "",
          "type": "uint256"
        }
      ],
      "stateMutability": "view",
      "type": "function"
    },
    {
      "inputs": [],
      "name": "owner",
      "outputs": [
        {
          "internalType": "address",
          "name": "",
          "type": "address"
        }
      ],
      "stateMutability": "view",
      "type": "function"
    },
    {
      "inputs": [],
      "name": "renounceOwnership",
      "outputs": [],
      "stateMutability": "nonpayable",
      "type": "function"
    },
    {
      "inputs": [
        {
          "internalType": "uint32",
          "name": "destParachainId",
          "type": "uint32"
        },
        {
          "internalType": "address",
          "name": "token",
          "type": "address"
        },
        {
          "internalType": "uint256",
          "name": "amount",
          "type": "uint256"
        },
        {
          "internalType": "uint256",
          "name": "aiRiskScore",
          "type": "uint256"
        },
        {
          "internalType": "bytes",
          "name": "assetData",
          "type": "bytes"
        },
        {
          "internalType": "uint32",
          "name": "feeAssetItem",
          "type": "uint32"
        },
        {
          "internalType": "uint64",
          "name": "weightLimit",
          "type": "uint64"
        }
      ],
      "name": "routeYieldViaXCM",
      "outputs": [],
      "stateMutability": "nonpayable",
      "type": "function"
    },
    {
      "inputs": [
        {
          "internalType": "address",
          "name": "newOracleAddress",
          "type": "address"
        }
      ],
      "name": "setAIOracleAddress",
      "outputs": [],
      "stateMutability": "nonpayable",
      "type": "function"
    },
    {
      "inputs": [
        {
          "internalType": "address",
          "name": "newXCMPrecompile",
          "type": "address"
        }
      ],
      "name": "setXCMPrecompileAddress",
      "outputs": [],
      "stateMutability": "nonpayable",
      "type": "function"
    },
    {
      "inputs": [
        {
          "internalType": "address",
          "name": "",
          "type": "address"
        }
      ],
      "name": "supportedTokens",
      "outputs": [
        {
          "internalType": "bool",
          "name": "",
          "type": "bool"
        }
      ],
      "stateMutability": "view",
      "type": "function"
    },
    {
      "inputs": [
        {
          "internalType": "address",
          "name": "",
          "type": "address"
        }
      ],
      "name": "totalDeposits",
      "outputs": [
        {
          "internalType": "uint256",
          "name": "",
          "type": "uint256"
        }
      ],
      "stateMutability": "view",
      "type": "function"
    },
    {
      "inputs": [
        {
          "internalType": "address",
          "name": "",
          "type": "address"
        }
      ],
      "name": "totalRouted",
      "outputs": [
        {
          "internalType": "uint256",
          "name": "",
          "type": "uint256"
        }
      ],
      "stateMutability": "view",
      "type": "function"
    },
    {
      "inputs": [
        {
          "internalType": "address",
          "name": "newOwner",
          "type": "address"
        }
      ],
      "name": "transferOwnership",
      "outputs": [],
      "stateMutability": "nonpayable",
      "type": "function"
    },
    {
      "inputs": [
        {
          "internalType": "address",
          "name": "",
          "type": "address"
        },
        {
          "internalType": "address",
          "name": "",
          "type": "address"
        }
      ],
      "name": "userDeposits",
      "outputs": [
        {
          "internalType": "uint256",
          "name": "",
          "type": "uint256"
        }
      ],
      "stateMutability": "view",
      "type": "function"
    },
    {
      "inputs": [
        {
          "internalType": "address",
          "name": "token",
          "type": "address"
        },
        {
          "internalType": "uint256",
          "name": "amount",
          "type": "uint256"
        }
      ],
      "name": "withdraw",
      "outputs": [],
      "stateMutability": "nonpayable",
      "type": "function"
    },
    {
      "inputs": [],
      "name": "xcmPrecompileAddress",
      "outputs": [
        {
          "internalType": "address",
          "name": "",
          "type": "address"
        }
      ],
      "stateMutability": "view",
      "type": "function"
    }
  ],
  "bytecode": "0x608060405234801561001057600080fd5b506040516111b33803806111b383398101604081905261002f91610150565b816001600160a01b03811661005e57604051631e4fbdf760e01b81526000600482015260240160405180910390fd5b610067816100e4565b5060017f9b779b17422d0df92223018b32b4d1fa46e071723d6817e2486d003becc55f00556001600160a01b0381166100b35760405163102837e160e21b815260040160405180910390fd5b600280546001600160a01b039092166001600160a01b03199283161790556001805490911661080117905550610183565b600080546001600160a01b038381166001600160a01b0319831681178455604051919092169283917f8be0079c531659141344cd1fd0a4f28419497f9722a3daafe3b4186f6b6457e09190a35050565b80516001600160a01b038116811461014b57600080fd5b919050565b6000806040838503121561016357600080fd5b61016c83610134565b915061017a60208401610134565b90509250929050565b611021806101926000396000f3fe608060405234801561001057600080fd5b506004361061012c5760003560e01c8063715018a6116100ad578063d3d7c00211610071578063d3d7c002146102be578063e9403256146102d1578063f2fde38b146102f1578063f3fef3a314610304578063f4ea7d0e1461031757600080fd5b8063715018a61461026c5780637b15e5df146102745780638c5edc1c146102875780638da5cb5b1461029a57806394e1c74c146102ab57600080fd5b806345f19131116100f457806345f19131146101eb57806347e7ef24146101f357806351f4a71d1461020657806368c4ac26146102265780636d69fcaf1461025957600080fd5b8063148c658c14610131578063319dda09146101575780633dfefe36146101805780633e63a755146101ab578063436d8039146101c0575b600080fd5b61014461013f366004610d2a565b610320565b6040519081526020015b60405180910390f35b610144610165366004610d5d565b6001600160a01b031660009081526006602052604090205490565b600154610193906001600160a01b031681565b6040516001600160a01b03909116815260200161014e565b6101be6101b9366004610dab565b61034d565b005b6101446101ce366004610d2a565b600460209081526000928352604080842090915290825290205481565b610144604b81565b6101be610201366004610e73565b610610565b610144610214366004610d5d565b60066020526000908152604090205481565b610249610234366004610d5d565b60036020526000908152604090205460ff1681565b604051901515815260200161014e565b6101be610267366004610d5d565b610760565b6101be6107db565b600254610193906001600160a01b031681565b6101be610295366004610d5d565b6107ef565b6000546001600160a01b0316610193565b6101be6102b9366004610d5d565b610867565b6101446102cc366004610d5d565b6108e0565b6101446102df366004610d5d565b60056020526000908152604090205481565b6101be6102ff366004610d5d565b61094b565b6101be610312366004610e73565b610989565b61019361080181565b6001600160a01b038083166000908152600460209081526040808320938516835292905220545b92915050565b60025433906001600160a01b0316811461038a57604051630fbe58b160e31b81526001600160a01b03821660048201526024015b60405180910390fd5b610392610af7565b604b86106103b657604051632977070b60e21b815260048101879052602401610381565b866000036103d757604051635e85ae7360e01b815260040160405180910390fd5b6001600160a01b03881660009081526003602052604090205460ff1661041b576040516306439c6b60e01b81526001600160a01b0389166004820152602401610381565b6040516370a0823160e01b81523060048201526000906001600160a01b038a16906370a0823190602401602060405180830381865afa158015610462573d6000803e3d6000fd5b505050506040513d601f19601f820116820180604052508101906104869190610e9d565b9050878110156104c257604051630f9b4abf60e31b81526001600160a01b038a1660048201526024810182905260448101899052606401610381565b6001600160a01b038916600090815260066020526040812080548a92906104ea908490610ecc565b9091555050600154604051631d78434d60e31b81526001600160a01b039091169063ebc21a6890610527908d908a908a908a908a90600401610f08565b600060405180830381600087803b15801561054157600080fd5b505af1158015610555573d6000803e3d6000fd5b50505050886001600160a01b03168a63ffffffff167f461783dbca28a86ad1f0e8ad70cc329d8fd4a930d01578fb68ade13280c176b98a8a8a8a426040516105a1959493929190610f4b565b60405180910390a38963ffffffff167f120753919acfc6dc5b5a15c5c548f4dcf4536d795e437e60a160cdf60513ef02878787876040516105e59493929190610f7d565b60405180910390a2506106056001600080516020610fcc83398151915255565b505050505050505050565b610618610af7565b6001600160a01b03821660009081526003602052604090205460ff1661065c576040516306439c6b60e01b81526001600160a01b0383166004820152602401610381565b8060000361067d57604051635e85ae7360e01b815260040160405180910390fd5b336106936001600160a01b038416823085610b13565b6001600160a01b038082166000908152600460209081526040808320938716835292905290812080548492906106ca908490610ecc565b90915550506001600160a01b038316600090815260056020526040812080548492906106f7908490610ecc565b9091555050604080518381524260208201526001600160a01b0380861692908416917fdcbc1c05240f31ff3ad067ef1ee35ce4997762752e3a095284754544f4c709d7910160405180910390a35061075c6001600080516020610fcc83398151915255565b5050565b610768610b4f565b6001600160a01b03811661078f57604051630f58058360e11b815260040160405180910390fd5b6001600160a01b038116600081815260036020526040808220805460ff19166001179055517fea3145306a87baeba6bb1a8b5c8d3744f840a81cb436b3509f64fc978600cdfb9190a250565b6107e3610b4f565b6107ed6000610b7c565b565b6107f7610b4f565b6001600160a01b03811661081e57604051633cc2effd60e01b815260040160405180910390fd5b600180546001600160a01b0319166001600160a01b0383169081179091556040517e71673f51b931458d449ab7624c45aa051a5337d7483fc981a15832c6a23b4190600090a250565b61086f610b4f565b6001600160a01b03811661089657604051635521068160e01b815260040160405180910390fd5b600280546001600160a01b0319166001600160a01b0383169081179091556040517f01db34cc1fec70288d8d48ba67dae8f2c3cfc760b51fb6d30300257d7f7911b390600090a250565b6040516370a0823160e01b81523060048201526000906001600160a01b038316906370a0823190602401602060405180830381865afa158015610927573d6000803e3d6000fd5b505050506040513d601f19601f820116820180604052508101906103479190610e9d565b610953610b4f565b6001600160a01b03811661097d57604051631e4fbdf760e01b815260006004820152602401610381565b61098681610b7c565b50565b610991610af7565b806000036109b257604051635e85ae7360e01b815260040160405180910390fd5b3360008181526004602090815260408083206001600160a01b038716845290915290205482811015610a185760405163e802653d60e01b81526001600160a01b038084166004830152851660248201526044810182905260648101849052608401610381565b6001600160a01b03808316600090815260046020908152604080832093881683529290529081208054859290610a4f908490610fb8565b90915550506001600160a01b03841660009081526005602052604081208054859290610a7c908490610fb8565b90915550610a9690506001600160a01b0385168385610bcc565b604080518481524260208201526001600160a01b0380871692908516917fc2b4a290c20fb28939d29f102514fbffd2b73c059ffba8b78250c94161d5fcc6910160405180910390a3505061075c6001600080516020610fcc83398151915255565b610aff610c06565b6002600080516020610fcc83398151915255565b610b21848484846001610c36565b610b4957604051635274afe760e01b81526001600160a01b0385166004820152602401610381565b50505050565b6000546001600160a01b031633146107ed5760405163118cdaa760e01b8152336004820152602401610381565b600080546001600160a01b038381166001600160a01b0319831681178455604051919092169283917f8be0079c531659141344cd1fd0a4f28419497f9722a3daafe3b4186f6b6457e09190a35050565b610bd98383836001610ca8565b610c0157604051635274afe760e01b81526001600160a01b0384166004820152602401610381565b505050565b600080516020610fcc833981519152546002036107ed57604051633ee5aeb560e01b815260040160405180910390fd5b6040516323b872dd60e01b60008181526001600160a01b038781166004528616602452604485905291602083606481808c5af192506001600051148316610c96578383151615610c89573d6000823e3d81fd5b6000883b113d1516831692505b60405250600060605295945050505050565b60405163a9059cbb60e01b60008181526001600160a01b038616600452602485905291602083604481808b5af192506001600051148316610d02578383151615610cf5573d6000823e3d81fd5b6000873b113d1516831692505b60405250949350505050565b80356001600160a01b0381168114610d2557600080fd5b919050565b60008060408385031215610d3d57600080fd5b610d4683610d0e565b9150610d5460208401610d0e565b90509250929050565b600060208284031215610d6f57600080fd5b610d7882610d0e565b9392505050565b803563ffffffff81168114610d2557600080fd5b803567ffffffffffffffff81168114610d2557600080fd5b60008060008060008060008060e0898b031215610dc757600080fd5b610dd089610d7f565b9750610dde60208a01610d0e565b96506040890135955060608901359450608089013567ffffffffffffffff80821115610e0957600080fd5b818b0191508b601f830112610e1d57600080fd5b813581811115610e2c57600080fd5b8c6020828501011115610e3e57600080fd5b602083019650809550505050610e5660a08a01610d7f565b9150610e6460c08a01610d93565b90509295985092959890939650565b60008060408385031215610e8657600080fd5b610e8f83610d0e565b946020939093013593505050565b600060208284031215610eaf57600080fd5b5051919050565b634e487b7160e01b600052601160045260246000fd5b8082018082111561034757610347610eb6565b81835281816020850137506000828201602090810191909152601f909101601f19169091010190565b600063ffffffff808816835260806020840152610f29608084018789610edf565b941660408301525067ffffffffffffffff919091166060909101529392505050565b858152846020820152608060408201526000610f6b608083018587610edf565b90508260608301529695505050505050565b606081526000610f91606083018688610edf565b905063ffffffff8416602083015267ffffffffffffffff8316604083015295945050505050565b8181038181111561034757610347610eb656fe9b779b17422d0df92223018b32b4d1fa46e071723d6817e2486d003becc55f00a2646970667358221220bda68f53663d9718d9dd9081462e1bf3b5fa1b299c071c8f811b063b088b1f1264736f6c63430008140033",
  "linkReferences": {},
  "deployedLinkReferences": {}
}